S01900004261736553746174696F6E43656E7465722E737265634D
S11300000C942C000C9454000C94FB0E0C9454008F
S11300100C9454000C9454000C94650F0C945400EC
S11300200C9454000C9454000C9454000C945400FC
S11300300C9454000C9454000C9454000C945400EC
S11300400C9454000C9454000C943F0F0C945400E2
S11300500C945400680B7C0B11241FBECFE5D4E034
S1130060DEBFCDBF10E0A0E6B0E0E6EAFFE102C0EB
S113007005900D92A037B107D9F724E0A0E7B0E0CE
S113008001C01D92A833B207E1F710E0C6E5D0E045
S113009004C02297FE010E94AB0FC435D107C9F7F3
S11300A00E947E0B0C94C60F0C940000FC0111827C
S11300B01382148215821682178210861186128684
S11300C008950895AC980000AC9AFC0180818823BF
S11300D009F4BAC28AEB81BB979AE9EFF0E0319751
S11300E0F1F700C00000C39A84E790E49093730092
S11300F0809372008BE290E090937500809374007B
S11301001092770010927600AC0181E090E0909319
S113011079008093780083E090E090937B00809353
S11301207A008091760090917700817099278E6093
S1130130A0E0B0E0BA2FA92F982F8827552760E0B8
S113014070E0842B952BA62BB72B3FE0880F991FCB
S1130150AA1FBB1F3A95D1F74091720050917300CA
S11301605F7760E070E0842B952BA62BB72B880F6C
S1130170991FAA1FBB1F880F991FAA1FBB1F880F97
S1130180991FAA1FBB1F880F991FAA1FBB1FAB98DB
S1130190A89830E225B32B7FAC01BD01442777FD3D
S11301A04395552766277727440F440F422B45BBB9
S11301B0A89A00C000C00000880F991FAA1FBB1F87
S11301C0A89800C000C00000315021F7AB9A00C0CD
S11301D000C00000AB9882E090E090937F00809391
S11301E07E00109281001092800010928300109281
S11301F08200109285001092840010928700109261
S11302008600909389008093880085E090E0909325
S11302108B0080938A0083E090E090938D0080931C
S11302208C0010928F0010928E00AB98A89830E248
S113023081E290E8A5E3B0E025B32B7FAC01BD01DA
S1130240442777FD4395552766277727440F440FA6
S1130250422B45BBA89A00C000C00000880F991F1C
S1130260AA1FBB1FA89800C000C00000315021F78E
S1130270AB9A00C000C00000AB9881E090E090937E
S1130280A5008093A4001092A7001092A6001092DB
S1130290A9001092A8008FE390E09093AB008093A4
S11302A0AA0081E290E09093AD008093AC0010929C
S11302B0AF001092AE001092B1001092B00082E034
S11302C090E09093B3008093B200AB98A89825B3C4
S11302D02B7F30E282E19EEFA0E1B0E844E00CC065
S11302E025B32B7FAC01BD01442777FD43955527EA
S11302F066277727440F440F422B45BBA89A00C0BA
S113030000C00000880F991FAA1FBB1FA89800C037
S113031000C00000315021F7AB9A00C000C00000BB
S1130320AB9882E090E09093CC008093CB009093C4
S1130330CE008093CD0081E290E09093D000809332
S1130340CF0088EC90E09093D2008093D100AB98DA
S1130350A89830E283EA91E2A8ECB0E025B32B7FC1
S1130360AC01BD01442777FD4395552766277727C0
S1130370440F440F422B45BBA89A00C000C00000A4
S1130380880F991FAA1FBB1FA89800C000C00000B7
S1130390315021F7AB9A00C000C00000AB9881E057
S11303A090E09093D7008093D60025E030E030931E
S11303B0D9002093D8001092DB001092DA009093B9
S11303C0DD008093DC00AB98A89830E284E591E0EE
S11303D0A0E0B1E025B32B7FAC01BD01442777FD3C
S11303E04395552766277727440F440F422B45BB77
S11303F0A89A00C000C00000880F991FAA1FBB1F45
S1130400A89800C000C00000315021F7AB9A00C08A
S113041000C00000AB9883E090E09093E2008093EA
S1130420E1001092E4001092E3008DEA92EDA4E959
S1130430B0E08093E5009093E600A093E700B093CA
S1130440E800AB98A89825B32B7F30E285E39DEABA
S1130450A2EDB4E944E00CC025B32B7FAC01BD018F
S1130460442777FD4395552766277727440F440F84
S1130470422B45BBA89A00C000C00000880F991FFA
S1130480AA1FBB1FA89800C000C00000315021F76C
S1130490AB9A00C000C00000AB988DE790E0909349
S11304A0EB008093EA001092ED001092EC001092A1
S11304B0EF001092EE001092F1001092F0001092F2
S11304C0F3001092F2001092F5001092F40080E90B
S11304D091E09093F7008093F60081E090E0909390
S11304E0F9008093F8001092FB001092FA00109229
S11304F0FD001092FC00AB98A89830E286ED97E0DE
S1130500A0E0B9E325B32B7FAC01BD01442777FDFF
S11305104395552766277727440F440F422B45BB45
S1130520A89A00C000C00000880F991FAA1FBB1F13
S1130530A89800C000C00000315021F7AB9A00C059
S113054000C00000AB9883EA91E090933D01809352
S11305503C0181E090E090933F0180933E01AB9891
S1130560A89830E28BE39AE1A0E1B0E025B32B7FB9
S1130570AC01BD01442777FD4395552766277727AE
S1130580440F440F422B45BBA89A00C000C0000092
S1130590880F991FAA1FBB1FA89800C000C00000A5
S11305A0315021F7AB9A00C000C00000AB988EE137
S11305B090E090931B0180931A0186E490E090935D
S11305C01D0180931C0110921F0110921E011092B4
S11305D021011092200183E090E090932301809305
S11305E0220182E090E090932501809324011092EF
S11305F0270110922601AB98A89830E289EE91E386
S1130600A2EBB0E025B32B7FAC01BD01442777FDFD
S11306104395552766277727440F440F422B45BB44
S1130620A89A00C000C00000880F991FAA1FBB1F12
S1130630A89800C000C00000315021F7AB9A00C058
S113064000C00000AB98089582E881BBC39889EF8D
S113065090E00197F1F700C00000979885EE9DE3C4
S113066090937300809372008BE290E090937500F6
S11306708093740081E090E09093770080937600FB
S1130680409174005091750040CD2F923F924F924B
S11306905F926F927F928F929F92AF92BF92CF920E
S11306A0DF92EF92FF920F931F93CF93DF93CDB717
S11306B0DEB760970FB6F894DEBF0FBECDBF6330D0
S11306C009F4E8C108F452C1653009F4B3C108F46F
S11306D068C1663009F495C18091040190910501C7
S11306E0609102017091030181709927880F991F0D
S11306F0880F991F63707727862B972B60910001D1
S113070070910101880F991F880F991F63707727D3
S1130710862B972B82959295907F9827807F982798
S113072007962C01612C712CAB98A89870E2F88A7A
S1130730EF8665B36B7F73016201CC24F7FCC3942D
S1130740DD24EE24FF24CC0CCC0CC62AC5BAA89A0E
S113075000C000C00000440C551C661C771CA898FF
S113076000C000C00000715021F7AB9A00C000C067
S11307700000AB98AB9AA89A000063B361FB2227F0
S113078020F930E0280F391F220F331FA8980000EA
S1130790A89A000083B38695817089831A8289811F
S11307A09A81280F391F220F331FA8980000A89A96
S11307B0000083B3869581708B831C82EB81FC815E
S11307C02E0F3F1F220F331FA8980000A89A000085
S11307D083B381FB002700F910E0200F311F220FA3
S11307E0331FA8980000A89A000083B381FBEE246D
S11307F0E0F8F12C2E0D3F1D220F331FA8980000A6
S1130800A89A000083B381FBAA27A0F9B0E02A0FBD
S11308103B1F220F331FA8980000A89A000083B33F
S113082081FBEE27E0F9F0E02E0F3F1F220F331F6C
S1130830A8980000A89A000083B381FBAA24A0F81A
S1130840B12C2A0D3B1D220F331FA8980000A89A33
S1130850000083B381FB882480F8912C280D391D76
S1130860220F331FA8980000A89A000083B386952E
S113087081708D831E828D819E81280F391F220FE6
S1130880331FA8980000A89A000083B3869581704E
S11308908F831886EF81F8852E0F3F1F220F331F99
S11308A0A8980000A89A000083B386958170898770
S11308B01A8689859A85280F391F220F331FA89815
S11308C00000A89A000083B3869581708B871C86EC
S11308D0EB85FC852E0F3F1F220F331FA8980000C5
S11308E0A89A000083B3869581708D871E868D85B6
S11308F09E85280F391F220F331FA8980000A89A3D
S1130900000083B381FB222420F8312C220D331DF7
S1130910220F331FA8980000A89A000083B381FB1C
S1130920442740F950E0420F531FA8980000AB9AA7
S11309300000AB98440F551FCA0160960FB6F89497
S1130940DEBF0FBECDBFDF91CF911F910F91FF90FE
S1130950EF90DF90CF90BF90AF909F908F907F905B
S11309606F905F904F903F902F900895613009F4FD
S11309707AC080F181E090E09093030180930201BA
S113098090930101809300019093050180930401E9
S113099037E5432E55245394612C712C87E591E05F
S11309A0C3CE81E090E0909303018093020163E061
S11309B070E07093010160930001909305018093AE
S11309C0040197E7492E55245394612C712C87E731
S11309D091E0AACE1092030110920201109201013B
S11309E01092000181E090E090930501809304014E
S11309F057E0452E55245394612C712C87E091E0E7
S1130A0093CE82E090E090930301809302011092D0
S1130A1001011092000181E090E090930501809320
S1130A20040107E8402E55245394612C712C87E867
S1130A3091E07ACE83E090E09093030180930201E9
S1130A40109201011092000181E090E09093050161
S1130A508093040187EC482E55245394612C712C07
S1130A6087EC91E061CE81E090E090930301809364
S1130A7002011092010110920001909305018093EC
S1130A80040147E4442E55245394612C712C87E4CB
S1130A9091E04ACE81E090E09093030180930201BB
S1130AA062E070E07093010160930001909305018E
S1130AB08093040127E6422E55245394612C712C13
S1130AC087E691E031CECF93DF93EC016883611127
S1130AD016C08BB7806A8BBF8CE085BF80E484BF6F
S1130AE080EA8ABF60E07BE48FEA93E00E94DD0D38
S1130AF080E189BFCE01DF91CF910C9462008BB766
S1130B008F708BBF1ABE15BE14BE60E07BE48FEA03
S1130B1093E00E94DD0D80E189BFCE01DF91CF918A
S1130B200C946200FC018081811103C082858111D3
S1130B3001C008958681883038F49381990F938396
S1130B40849B02C0916093838F5F8683893089F789
S1130B50168281E081878381848313820895FC0156
S1130B602081211102C021E022870895FC0122B3D3
S1130B70878130E1839FC00111242F7E282B22BB63
S1130B804581483089F0828190E027E030E0241BE1
S1130B90310902C0959587952A95E2F781709927C6
S1130BA087834F5F4583089581E09781282F291B10
S1130BB02783918192831182158280870895FC0195
S1130BC0618310860895FC0180850895FC011186D7
S1130BD084810895FC0181850895FC0181E0908160
S1130BE0911180E00895FC0112860895FC01608350
S1130BF0611195C08BB7806A8BBF8CE085BF80E4A0
S1130C0084BF80EA8ABF80E189BFAC980000AC9AB7
S1130C1082E881BBC39889EF90E00197F1F700C0A7
S1130C200000979885EE9DE3909373008093720083
S1130C308BE290E0909375008093740081E090E0E3
S1130C4090937700809376004091740050917500E2
S1130C5081E090E0909379008093780083E090E0C5
S1130C6090937B0080937A00809176009091770036
S1130C70817099278E60A0E0B0E0BA2FA92F982F39
S1130C808827552760E070E0842B952BA62BB72B83
S1130C903FE0880F991FAA1FBB1F3A95D1F74091D7
S1130CA07200509173005F7760E070E0842B952BA5
S1130CB0A62BB72B880F991FAA1FBB1F880F991F3C
S1130CC0AA1FBB1F880F991FAA1FBB1F880F991F3C
S1130CD0AA1FBB1FAB98A89830E225B32B7FAC01A9
S1130CE0BD01442777FD4395552766277727440F91
S1130CF0440F422B45BBA89A00C000C00000880FD7
S1130D00991FAA1FBB1FA89800C000C00000315043
S1130D1021F7AB9A00C000C00000AB9808958BB7D0
S1130D208F708BBF1ABE15BE14BE80E189BFAC980C
S1130D300000AC9A8AEB81BB979AE9EFF0E0319717
S1130D40F1F700C00000C39A84E790E49093730025
S1130D50809372008BE290E090937500809374000E
S1130D601092770010927600AC0172CFFC0182855C
S1130D700895FC01E758FF4F11821082FC01E558E9
S1130D80FF4F1182108208950895EF92FF920F93FE
S1130D901F93CF93DF93EC010E94E308FE01E55813
S1130DA0FF4F408151818E0107581F4FF801208168
S1130DB03181421753074CF5421B530B7A01F9E773
S1130DC0EF0EF11C0E94E9081E141F0434F5F8010B
S1130DD020813181C20FD31F88812F5F3F4F293774
S1130DE0310554F0F80111821082DF91CF911F91E7
S1130DF00F91FF90EF90089531832083DF91CF917D
S1130E001F910F91FF90EF9008957A01E21AF30A6F
S1130E100E94E9081E141F04D4F280E0DF91CF91F0
S1130E201F910F91FF90EF900895DF92EF92FF9240
S1130E300F931F93CF93DF93EC01D62E0E94E30808
S1130E408E0105581F4FF80140815181FE01E7587A
S1130E50FF4F208131814217530714F5421B530B76
S1130E607A01F9E7EF0EF11C0E94E90888E7E81619
S1130E70F10474F4F80180819181C80FD91FD882DC
S1130E800196918380838937910514F01182108231
S1130E90DF91CF911F910F91FF90EF90DF90089514
S1130EA07A01E21AF30AE0CF8F929F92AF92BF9237
S1130EB0CF92DF92EF92FF920F931F93CF93DF9322
S1130EC05C017B01EA01493751050CF451C0C8E7C4
S1130ED0D0E09BE7C92ED12CCA0CDB1C8501075836
S1130EE01F4F20C0421B530B4A01F9E78F0E911C80
S1130EF00E94E9081814190444F5F80180819181CD
S1130F00F501E80FF91F20810196F8019183808390
S1130F108937910514F011821082F70121937F0122
S1130F202197C9F00E94E308F60140815181F8013C
S1130F302081318142175307ACF24A01821A930A85
S1130F400E94E90818141904C4F220E0F70121935F
S1130F507F01219739F7DF91CF911F910F91FF9076
S1130F60EF90DF90CF90BF90AF909F908F900895B7
S1130F70209789F38BE7C82ED12CCA0CDB1C850182
S1130F8007581F4FCFCF7F928F929F92AF92BF92FD
S1130F90CF92DF92EF92FF920F931F93CF93DF9341
S1130FA05C01EA0149375105E4F1C8E7D0E07B016F
S1130FB0850105581F4F29E7C22ED12CCA0CDB1C12
S1130FC01EC0421B530B4A01F9E78F0E911C0E946D
S1130FD0E90888E78816910484F4F80180819181F6
S1130FE0F501E80FF91F70820196F801918380835F
S1130FF08937910514F0118210822197A1F0F7012D
S113100071907F010E94E308F80140815181F6014B
S11310102081318142175307A4F24A01821A930AAC
S1131020D6CF209721F6DF91CF911F910F91FF909A
S1131030EF90DF90CF90BF90AF909F908F907F9074
S113104008950F931F93CF93DF938C010E94E308BD
S1131050F801E558FF4FC081D181F801E758FF4FEF
S113106020813181C217D30764F4C21BD30BC75844
S1131070DF4F0E94E908CE01DF91CF911F910F91BC
S11310800895C21BD30B0E94E908CE01DF91CF91D2
S11310901F910F910895FC01E758FF4F11821082B0
S11310A0FC01E558FF4F1182108208951BBA8FE0AE
S11310B08ABB80E188BB88E187BB15BA8DE184BB1C
S11310C012BA82E881BB85E083BF12BE1CBE1FBC7E
S11310D081E08EBD1DBC1CBC17BC16BC83E08BBD5F
S11310E081E48ABD19BC18BC12BC15BC14BC13BC69
S11310F080E888B910BE0895823001F128F0833069
S113110019F1843099F00895882351F08130D9F78A
S11311108BB38B7FCA9B10C090E0892B8BBB089547
S11311208BB38D7FC999F8CF92E0F7CF8BB38F77CC
S1131130CF99F2CF90E8F1CF94E0EFCF8BB3877FD4
S1131140CB99EACF98E0E9CF8BB38F7ECC99E4CFEB
S113115090E1E3CF823079F030F0833071F0843065
S113116041F0D99A08958823E1F38130D1F7DA9ACE
S11311700895DF9A0895DB9A0895DC9A08958230E1
S113118079F030F0833071F0843041F0D9980895CB
S11311908823E1F38130D1F7DA980895DF98089530
S11311A0DB980895DC980895AB01BC018EE992E0C8
S11311B00C94C30781E08093E2017894089510921F
S11311C0E201F89408958091E2011092E201F8940A
S11311D00895811104C0F8941092E201089578945E
S11311E081E08093E20108950F931F93CF93DF93DF
S11311F081E292E00E942108892B09F484C0809145
S1131200E101813009F47FC081E292E00E94C506C9
S11312102091610130916201F901ED59FE4F808303
S11312202115310509F45AC02130310509F070C087
S113123080916401833441F08FEF9FEF90936201BA
S1131240809361012FEF3FEF243031050CF455C03A
S1131250809167018F3109F41FC108F061C08C319E
S113126009F488C008F0CEC0813109F4D0C08B31B4
S113127009F05FC02D3031050CF43FC09EE7909318
S11312807B0180937C018091680180937D01809132
S1131290690180937E0180916A0180937F0180912E
S11312A06B018093800180916C0180938101809116
S11312B06D018093820180916E01809383018091FE
S11312C06F018093840180917001809385018BE08C
S11312D080938F0181E08093E1010DC080916301CF
S11312E0843209F0A9CF2330310509F0ADCF8091C4
S11312F06601843411F02FEF3FEF2F5F3F4F30939F
S1131300620120936101DF91CF911F910F910895A4
S11313102230310541F7809165018D3461F7EDCFBD
S1131320823269F008F08BC0803209F426C1813220
S113133031F0283131050CF320E030E0E0CF2730E4
S11313403105DCF29EE790937B0180937C018091D0
S1131350680180937D018091690180937E01809171
S11313606A0180937F0185E080938F0181E08093FF
S1131370E101E2CF223131050CF4BFCF9EE7909317
S11313807B0180937C018091680180937D01809131
S1131390690180937E0180916A0180937F0180912D
S11313A06B018093800180916C0180938101809115
S11313B06D018093820180916E01809383018091FD
S11313C06F018093840180917001809385018091E5
S11313D071018093860180917201809387018091CD
S11313E073018093880180917401809389018091B5
S11313F0750180938A0180E180938F0181E080935D
S1131400E1019ACF8D3119F08E3109F092CF263057
S113141031050CF472CF9EE790937B0180937C019D
S11314208091680180937D018091690180937E01A0
S113143084E080938F0181E08093E1017DCF853248
S113144009F47DCF863209F47ACF833209F071CF63
S1131450293031050CF451CF9EE790937B018093A2
S11314607C018091680180937D0180916901809362
S11314707E0180916A0180937F0180916B0180934A
S1131480800180916C018093810187E080938F01BA
S113149081E08093E10150CF293031050CF42DCF48
S11314A0D0916801D0936300C0916901C093620038
S11314B0E0916A0100916B0110929B0110929A01D4
S11314C01092990110929801033108F46FC00A3800
S11314D008F48EC0033E08F49BC010E0035E1109BB
S11314E0D80120E032EA4AE454E00E94A10F90932C
S11314F097018093960120E032EA029FC001039F86
S1131500900D129F900D1124909395018093940156
S11315108FEF9FEF9093610080936000E23509F4B0
S11315205AC04D2F50E06C2F70E064177507FCF023
S1131530A0919C01B0919D01CA01FD01EE0FFF1F16
S1131540E256FE4F9B012F5F3F4F8193919301968B
S113155082179307D1F7CD010296860F971F409506
S11315605095840F951F90939D0180939C0181E079
S11315708093E1018093E001DFCE273031050CF444
S1131580BCCE62E58FEA93E00E94F00D8FEF80936A
S11315906300809362008FEF9FEF909361008093CC
S11315A060001092E0011092E101C6CE1092970102
S11315B010929601802F90E0019648E853E1849FB1
S11315C09001859F300D949F300D11243093950127
S11315D0209394019DCFEEE9F1E08193919321E072
S11315E0EE3DF207D1F710929D0110929C0199CF24
S11315F0A02FB0E0529720E23EE40E949A0F90930D
S1131600970180939601709395016093940180CF24
S113161010E009581109D80120E83FE442E150E004
S11316200E94A10F909397018093960120E83FE4D4
S1131630029FC001039F900D129F900D112490935F
S113164095018093940164CF9EE790937B0194E28B
S113165090937C0180937D0183E080938F010895B2
S11316608EE992E00E942108892B09F008956EE723
S11316708EE992E00E94150769E08EE992E00E94EB
S113168015074BE050E064E670E08EE992E00C94BC
S1131690C307EEE9F1E08FEF9FEF8193919321E08F
S11316A0EE3DF207D1F7089583EE91E00E94040E17
S11316B081E292E00E94C4068EE992E00E94C40690
S11316C08BE193E00E94180E8AEA93E00C94230DB8
S11316D08AEA93E00E941F0D8BE193E00E94050EBD
S11316E08EE992E00E94B90681E292E00E94B90676
S11316F083EE91E00C94FE0D0C94540BCF93DF9386
S113170000D0CDB7DEB70E9456080E94DF080E94C1
S1131710490B60E08BE193E00E94240E80E00E947C
S1131720AA082FE768E381E0215060408040E1F798
S113173000C0000080E00E94BF089FE7A8E321E00A
S11317409150A0402040E1F700C0000081E00E94D9
S1131750AA086FE788E391E0615080409040E1F788
S113176000C0000081E00E94BF08AFE728E361E009
S1131770A15020406040E1F700C0000082E00E94D8
S1131780AA088FE798E3A1E081509040A040E1F7D8
S113179000C0000082E00E94BF082FE768E381E0F8
S11317A0215060408040E1F700C000009FEFA0E7B7
S11317B022E09150A0402040E1F700C0000082994F
S11317C03AC16FEF80E792E0615080409040E1F7CA
S11317D000C0000080E00E94AA080E94DA088FEF8F
S11317E080936300809362001092E001D12CEE2478
S11317F0EA94FE2C0E94F4088EE992E00E942108EB
S11318001816190634F48FEA93E00E94F40D81113E
S113181048C08091E101811114C08BE193E00E94E2
S11318209F0E811117C082E00E94AA088BE193E009
S11318300E94EE0E892BF1F68BE193E00E94A20E3A
S1131840D9CF80E00E947C088BE193E00E949F0E38
S1131850882349F38BE193E00E94F80E811150C074
S11318608BE193E00E94EE0E8234910520F52091E5
S1131870DE013091DF01253C394018F4DD2009F404
S1131880B9CF8091E101811184C08091E00181117F
S1131890A3C01092DF011092DE010E94300BD12C04
S11318A0A9CF8EE992E00E94C506682F8FEA93E0E3
S11318B00E94F00DAECF65EF73E08BE193E00E94E0
S11318C0F10E82E00E94BF08AE014F5F5F4F65EFEB
S11318D073E08AEA93E00E94900D882309F48ACF8A
S11318E081E00E947C0810931C0400931B0469810E
S11318F07A8185EF93E00E94D408DD24D3947ACFD3
S113190061E08BE193E00E94270E8C01A9CF81E076
S11319100E947C08E0916000F0916100CF01019683
S11319209C0140919C0150919D0148175907D0F0AA
S1131930DC01AA0FBB1FA256BE4F6D917C916F3F75
S11319407F4F09F065C0EE0FFF1FEE55FE4F05C037
S113195081919191019609F05CC02F5F3F4F42172E
S11319605307B0F7F0926100E09260008091960115
S11319709091970190939B0180939A018091940197
S113198090919501909399018093980181E08093BF
S1131990E1011092DF011092DE010E94E308D82ECB
S11319A08BE193E00E94A20E40918F0122EB33E081
S11319B050E06BE771E08AEA93E00E94240D62EB49
S11319C073E08BE193E00E94D50E1092E1018D2D1E
S11319D00E94E908D12C0ECF0E94300B809198010F
S11319E090919901892B39F480919A0190919B01EE
S11319F0892B09F48CCF82E00E947C088091E1015C
S1131A001092DF011092DE01882309F446CFC5CF7E
S1131A109C012F3F8FEF380709F4A4CF3093610066
S1131A2020936000F901EE0FFF1FE256FE4F808104
S1131A300E94240BABCF80E00E94AA08C2CE21E111
S1131A40FC01248308950895CF92DF92FF920F93AF
S1131A501F93CF93DF93DC0113961C921E9212976F
S1131A604E33510588F44115510509F050C0F90170
S1131A7082E411928150E9F7DF91CF911F910F9188
S1131A80FF90DF90CF900895EC014C81F9014083E1
S1131A9011824DE3428310E44DE350E000E0A0E006
S1131AA0B0E06B01CA0EDB1EF601F080FC01C281BE
S1131AB0D381CF0DD11DD383C283E601E881A20F68
S1131AC0B31F1396EC930F5FA02FB0E0A417B507D4
S1131AD044F305C0F901E10FF11D10821F5F1034BA
S1131AE0C9F7F901E05CFF4FDC0113964C911397A1
S1131AF04083F901EF5BFF4F12968C918083DF9155
S1131B00CF911F910F91FF90DF90CF90089514967D
S1131B10EC91E901E88319824A83142F1D5FBECF3B
S1131B20CF93DF93DB012C91FC018481281341C006
S1131B3011963C91119720E012968C911297282BC4
S1131B402E333105B0F5FA01318320836D5F7F4F69
S1131B5040E050E021153105E9F0E0E080E090E05C
S1131B60EB01C80FD91F8881480F511DEF5F8E2FDD
S1131B7090E082179307A4F360E080E090E0FD0119
S1131B80E80FF91F838180836F5F862F90E08217AF
S1131B909307ACF3FD01E05CFF4F908180E0AF5B05
S1131BA0BF4F2C91BC01622B9B0181E024173507A8
S1131BB009F080E0DF91CF9108951BB888E18AB9DC
S1131BC086E880BD10BC603885E2780719F061159D
S1131BD07B4419F083E389B9089589E189B90895AB
S1131BE05D9BFECF6CB908958BB185FB882780F986
S1131BF008958BB1881F8827881F0895FC0195AF2D
S1131C0084AF2FEF228308950895CF93DF93EC01DF
S1131C1005960E945600CE0142960E94B90682E1C2
S1131C208A8384E38B8386E58C83DF91CF91089547
S1131C30CF93DF93EC0142960E94C406CE01059631
S1131C40DF91CF910C94610005960C946305059681
S1131C500C9445030F931F93CF93DF938C01209132
S1131C60DE013091DF012F5F3F4F3093DF0120937E
S1131C70DE018091980190919901009789F0019774
S1131C809093990180939801E8012596CE010E94D2
S1131C90ED058823F9F0DF91CF911F910F910895FD
S1131CA080919A0190919B01009771F32091940186
S1131CB03091950130939901209398010197909365
S1131CC09B0180939A01E8012596CE010E94ED05BF
S1131CD08111E1CFCE010E94B605CE010E94E30539
S1131CE08823C9F2F8018081918188329105BCF47E
S1131CF085329105D9F086329105D9F08797E1F0C4
S1131D006AEACE010E94DF05F80180819181019683
S1131D1091838083DF91CF911F910F910895C80122
S1131D2042960E94C5066AEA6827EBCFF8016281F1
S1131D30E8CFF8016381E5CFF8016481E2CF05962D
S1131D400C94ED05FF920F931F93CF93DF93EC0157
S1131D500E94E308F82E8E010B5F1F4FC8010E94FA
S1131D60ED05811117C060E0C8010E94F6058EE9F7
S1131D7092E00E944B08CE0142960E944B089AB70B
S1131D809F719ABF8F2DDF91CF911F910F91FF907B
S1131D900C94E90861E0C8010E94F605CE01429660
S1131DA00E944B0819821882EACFCF93DF93EC018B
S1131DB0629642E450E0CE010E94C30760E0CE0187
S1131DC00E94150760E0CE010E94150760E0CE0175
S1131DD00E94150781E0DF91CF91089542960C94FB
S1131DE0210842E450E042960E94540781E008959D
S1131DF005960C94B6061F920F920FB60F921124FB
S1131E002F933F934F935F936F937F938F939F93FE
S1131E10AF93BF93EF93FF9380E293E00E94920508
S1131E2080E293E00E94EA05811111C0FF91EF91D5
S1131E30BF91AF919F918F917F916F915F914F91DE
S1131E403F912F910F900FBE0F901F90189580E235
S1131E5093E00E94E6056AEA68278DE293E00E9417
S1131E60150780912C038F5F80932C038234F0F24A
S1131E7080E293E00E94F30510922C03D7CF1F92C7
S1131E800F920FB60F9211242F933F934F935F93AA
S1131E906F937F938F939F93AF93BF93EF93FF932E
S1131EA080E293E00E94AF05FF91EF91BF91AF9163
S1131EB09F918F917F916F915F914F913F912F915E
S1131EC00F900FBE0F901F9018951F920F920FB690
S1131ED00F9211242F933F934F935F936F937F93AC
S1131EE08F939F93AF93BF93EF93FF931DBC8CE2AB
S1131EF08CBD12BE8BE193E00E942A0E8FEA93E020
S1131F000E94F90D882329F06CB181E292E00E94CD
S1131F101507FF91EF91BF91AF919F918F917F91A1
S1131F206F915F914F913F912F910F900FBE0F9042
S1131F301F9018950E94AF0FB7FF0895821B930B53
S1131F400895B7FF0C94BB0F0E94BB0F821B930B29
S1131F500895EE0FFF1F0590F491E02D0994A29FC0
S1131F60B001B39FC001A39F01D0B29F700D811D2A
S1131F701124911D08950E94AF0FA59F900DB49F49
S1131F80900DA49F800D911D1124089510E0C6E5C5
S1131F90D0E004C0FE010E94AB0F2296C835D107E1
S1091FA0C9F7F894FFCF1D
S1131FA6FFFFFFFF4920414D20414C4956450000A3
S9030000FC
