S01900004261736553746174696F6E43656E7465722E737265634D
S11300000C942C000C9454000C940E0F0C9454007B
S11300100C9454000C9454000C94780F0C945400D9
S11300200C9454000C9454000C9454000C945400FC
S11300300C9454000C9454000C9454000C945400EC
S11300400C9454000C9454000C94520F0C945400CF
S11300500C945400740B880B11241FBECFE5D4E01C
S1130060DEBFCDBF10E0A0E6B0E0ECECFFE102C0E3
S113007005900D92AE36B107D9F724E0AEE6B0E0B4
S113008001C01D92A833B207E1F710E0C6E5D0E045
S113009004C02297FE010E94BE0FC435D107C9F7E0
S11300A00E948A0B0C94D90F0C940000FC0111825D
S11300B01382148215821682178210861186128684
S11300C008950895AC980000AC9AFC0180818823BF
S11300D009F4BAC28AEB81BB979AE9EFF0E0319751
S11300E0F1F700C00000C39A84E790E49093710094
S11300F0809370008BE290E0909373008093720081
S11301001092750010927400AC0181E090E090931D
S113011077008093760083E090E090937900809359
S113012078008091740090917500817099278E6099
S1130130A0E0B0E0BA2FA92F982F8827552760E0B8
S113014070E0842B952BA62BB72B3FE0880F991FCB
S1130150AA1FBB1F3A95D1F74091700050917100CE
S11301605F7760E070E0842B952BA62BB72B880F6C
S1130170991FAA1FBB1F880F991FAA1FBB1F880F97
S1130180991FAA1FBB1F880F991FAA1FBB1FAB98DB
S1130190A89830E225B32B7FAC01BD01442777FD3D
S11301A04395552766277727440F440F422B45BBB9
S11301B0A89A00C000C00000880F991FAA1FBB1F87
S11301C0A89800C000C00000315021F7AB9A00C0CD
S11301D000C00000AB9882E090E090937D00809393
S11301E07C0010927F0010927E0010928100109289
S11301F08000109283001092820010928500109269
S11302008400909387008093860085E090E090932B
S113021089008093880083E090E090938B00809322
S11302208A0010928D0010928C00AB98A89830E24E
S113023081E290E8A5E3B0E025B32B7FAC01BD01DA
S1130240442777FD4395552766277727440F440FA6
S1130250422B45BBA89A00C000C00000880F991F1C
S1130260AA1FBB1FA89800C000C00000315021F78E
S1130270AB9A00C000C00000AB9881E090E090937E
S1130280A3008093A2001092A5001092A4001092E3
S1130290A7001092A6008FE390E09093A9008093AA
S11302A0A80081E290E09093AB008093AA001092A2
S11302B0AD001092AC001092AF001092AE0082E03C
S11302C090E09093B1008093B000AB98A89825B3C8
S11302D02B7F30E282E19EEFA0E1B0E844E00CC065
S11302E025B32B7FAC01BD01442777FD43955527EA
S11302F066277727440F440F422B45BBA89A00C0BA
S113030000C00000880F991FAA1FBB1FA89800C037
S113031000C00000315021F7AB9A00C000C00000BB
S1130320AB9882E090E09093CA008093C9009093C8
S1130330CC008093CB0081E290E09093CE00809338
S1130340CD0088EC90E09093D0008093CF00AB98E0
S1130350A89830E283EA91E2A8ECB0E025B32B7FC1
S1130360AC01BD01442777FD4395552766277727C0
S1130370440F440F422B45BBA89A00C000C00000A4
S1130380880F991FAA1FBB1FA89800C000C00000B7
S1130390315021F7AB9A00C000C00000AB9881E057
S11303A090E09093D5008093D40025E030E0309322
S11303B0D7002093D6001092D9001092D8009093C1
S11303C0DB008093DA00AB98A89830E284E591E0F2
S11303D0A0E0B1E025B32B7FAC01BD01442777FD3C
S11303E04395552766277727440F440F422B45BB77
S11303F0A89A00C000C00000880F991FAA1FBB1F45
S1130400A89800C000C00000315021F7AB9A00C08A
S113041000C00000AB9883E090E09093E0008093EC
S1130420DF001092E2001092E1008DEA92EDA4E95F
S1130430B0E08093E3009093E400A093E500B093D0
S1130440E600AB98A89825B32B7F30E285E39DEABC
S1130450A2EDB4E944E00CC025B32B7FAC01BD018F
S1130460442777FD4395552766277727440F440F84
S1130470422B45BBA89A00C000C00000880F991FFA
S1130480AA1FBB1FA89800C000C00000315021F76C
S1130490AB9A00C000C00000AB988DE790E0909349
S11304A0E9008093E8001092EB001092EA001092A9
S11304B0ED001092EC001092EF001092EE001092FA
S11304C0F1001092F0001092F3001092F20080E913
S11304D091E09093F5008093F40081E090E0909394
S11304E0F7008093F6001092F9001092F800109231
S11304F0FB001092FA00AB98A89830E286ED97E0E2
S1130500A0E0B9E325B32B7FAC01BD01442777FDFF
S11305104395552766277727440F440F422B45BB45
S1130520A89A00C000C00000880F991FAA1FBB1F13
S1130530A89800C000C00000315021F7AB9A00C059
S113054000C00000AB9883EA91E090933B01809354
S11305503A0181E090E090933D0180933C01AB9897
S1130560A89830E28BE39AE1A0E1B0E025B32B7FB9
S1130570AC01BD01442777FD4395552766277727AE
S1130580440F440F422B45BBA89A00C000C0000092
S1130590880F991FAA1FBB1FA89800C000C00000A5
S11305A0315021F7AB9A00C000C00000AB988EE137
S11305B090E0909319018093180186E490E0909361
S11305C01B0180931A0110921D0110921C011092BC
S11305D01F0110921E0183E090E09093210180930B
S11305E0200182E090E090932301809322011092F5
S11305F0250110922401AB98A89830E289EE91E38A
S1130600A2EBB0E025B32B7FAC01BD01442777FDFD
S11306104395552766277727440F440F422B45BB44
S1130620A89A00C000C00000880F991FAA1FBB1F12
S1130630A89800C000C00000315021F7AB9A00C058
S113064000C00000AB98089582E881BBC39889EF8D
S113065090E00197F1F700C00000979885EE9DE3C4
S113066090937100809370008BE290E090937300FC
S11306708093720081E090E0909375008093740001
S1130680409172005091730040CD2F923F924F924F
S11306905F926F927F928F929F92AF92BF92CF920E
S11306A0DF92EF92FF920F931F93CF93DF93CDB717
S11306B0DEB760970FB6F894DEBF0FBECDBF6330D0
S11306C009F4E8C108F452C1653009F4B3C108F46F
S11306D068C1663009F495C18091020190910301CB
S11306E0609100017091010181709927880F991F11
S11306F0880F991F63707727862B972B6091FE00D4
S11307007091FF00880F991F880F991F63707727D6
S1130710862B972B82959295907F9827807F982798
S113072007962C01612C712CAB98A89870E2F88A7A
S1130730EF8665B36B7F73016201CC24F7FCC3942D
S1130740DD24EE24FF24CC0CCC0CC62AC5BAA89A0E
S113075000C000C00000440C551C661C771CA898FF
S113076000C000C00000715021F7AB9A00C000C067
S11307700000AB98AB9AA89A000063B361FB2227F0
S113078020F930E0280F391F220F331FA8980000EA
S1130790A89A000083B38695817089831A8289811F
S11307A09A81280F391F220F331FA8980000A89A96
S11307B0000083B3869581708B831C82EB81FC815E
S11307C02E0F3F1F220F331FA8980000A89A000085
S11307D083B381FB002700F910E0200F311F220FA3
S11307E0331FA8980000A89A000083B381FBEE246D
S11307F0E0F8F12C2E0D3F1D220F331FA8980000A6
S1130800A89A000083B381FBAA27A0F9B0E02A0FBD
S11308103B1F220F331FA8980000A89A000083B33F
S113082081FBEE27E0F9F0E02E0F3F1F220F331F6C
S1130830A8980000A89A000083B381FBAA24A0F81A
S1130840B12C2A0D3B1D220F331FA8980000A89A33
S1130850000083B381FB882480F8912C280D391D76
S1130860220F331FA8980000A89A000083B386952E
S113087081708D831E828D819E81280F391F220FE6
S1130880331FA8980000A89A000083B3869581704E
S11308908F831886EF81F8852E0F3F1F220F331F99
S11308A0A8980000A89A000083B386958170898770
S11308B01A8689859A85280F391F220F331FA89815
S11308C00000A89A000083B3869581708B871C86EC
S11308D0EB85FC852E0F3F1F220F331FA8980000C5
S11308E0A89A000083B3869581708D871E868D85B6
S11308F09E85280F391F220F331FA8980000A89A3D
S1130900000083B381FB222420F8312C220D331DF7
S1130910220F331FA8980000A89A000083B381FB1C
S1130920442740F950E0420F531FA8980000AB9AA7
S11309300000AB98440F551FCA0160960FB6F89497
S1130940DEBF0FBECDBFDF91CF911F910F91FF90FE
S1130950EF90DF90CF90BF90AF909F908F907F905B
S11309606F905F904F903F902F900895613009F4FD
S11309707AC080F181E090E09093010180930001BE
S11309809093FF008093FE009093030180930201F3
S113099037E5432E55245394612C712C87E591E05F
S11309A0C3CE81E090E0909301018093000163E065
S11309B070E07093FF006093FE00909303018093B6
S11309C0020197E7492E55245394612C712C87E733
S11309D091E0AACE10920101109200011092FF0042
S11309E01092FE0081E090E0909303018093020155
S11309F057E0452E55245394612C712C87E091E0E7
S1130A0093CE82E090E090930101809300011092D4
S1130A10FF001092FE0081E090E090930301809328
S1130A20020107E8402E55245394612C712C87E869
S1130A3091E07ACE83E090E09093010180930001ED
S1130A401092FF001092FE0081E090E09093030169
S1130A508093020187EC482E55245394612C712C09
S1130A6087EC91E061CE81E090E090930101809366
S1130A7000011092FF001092FE00909303018093F6
S1130A80020147E4442E55245394612C712C87E4CD
S1130A9091E04ACE81E090E09093010180930001BF
S1130AA062E070E07093FF006093FE009093030196
S1130AB08093020127E6422E55245394612C712C15
S1130AC087E691E031CECF93DF93EC016883611127
S1130AD016C08BB7806A8BBF8CE085BF80E484BF6F
S1130AE080EA8ABF60E07BE48FEA93E00E94E90D2C
S1130AF080E189BFCE01DF91CF910C9462008BB766
S1130B008F708BBF1ABE15BE14BE60E07BE48FEA03
S1130B1093E00E94E90D80E189BFCE01DF91CF917E
S1130B200C946200FC018081811103C082858111D3
S1130B3001C008958681883038F49381990F938396
S1130B40849B02C0916093838F5F8683893089F789
S1130B50168281E081878381848313820895FC0156
S1130B602081211102C021E022870895FC0122B3D3
S1130B70878130E1839FC00111242F7E282B22BB63
S1130B804581483089F0828190E027E030E0241BE1
S1130B90310902C0959587952A95E2F781709927C6
S1130BA087834F5F4583089581E09781282F291B10
S1130BB02783918192831182158280870895FC0195
S1130BC0618310860895FC0180850895FC011186D7
S1130BD084810895FC0181850895FC0181E0908160
S1130BE0911180E00895FC0112860895FC01608350
S1130BF0611195C08BB7806A8BBF8CE085BF80E4A0
S1130C0084BF80EA8ABF80E189BFAC980000AC9AB7
S1130C1082E881BBC39889EF90E00197F1F700C0A7
S1130C200000979885EE9DE3909371008093700087
S1130C308BE290E0909373008093720081E090E0E7
S1130C4090937500809374004091720050917300EA
S1130C5081E090E0909377008093760083E090E0C9
S1130C60909379008093780080917400909175003E
S1130C70817099278E60A0E0B0E0BA2FA92F982F39
S1130C808827552760E070E0842B952BA62BB72B83
S1130C903FE0880F991FAA1FBB1F3A95D1F74091D7
S1130CA07000509171005F7760E070E0842B952BA9
S1130CB0A62BB72B880F991FAA1FBB1F880F991F3C
S1130CC0AA1FBB1F880F991FAA1FBB1F880F991F3C
S1130CD0AA1FBB1FAB98A89830E225B32B7FAC01A9
S1130CE0BD01442777FD4395552766277727440F91
S1130CF0440F422B45BBA89A00C000C00000880FD7
S1130D00991FAA1FBB1FA89800C000C00000315043
S1130D1021F7AB9A00C000C00000AB9808958BB7D0
S1130D208F708BBF1ABE15BE14BE80E189BFAC980C
S1130D300000AC9A8AEB81BB979AE9EFF0E0319717
S1130D40F1F700C00000C39A84E790E49093710027
S1130D50809370008BE290E0909373008093720014
S1130D601092750010927400AC0172CFFC01828560
S1130D700895FC01E758FF4F11821082FC01E558E9
S1130D80FF4F1182108208950895EF92FF920F93FE
S1130D901F93CF93DF93EC010E94E308FE01E55813
S1130DA0FF4F408151818E0107581F4FF801208168
S1130DB03181421753074CF5421B530B7A01F9E773
S1130DC0EF0EF11C0E94E9081E141F0434F5F8010B
S1130DD020813181C20FD31F88812F5F3F4F293774
S1130DE0310554F0F80111821082DF91CF911F91E7
S1130DF00F91FF90EF90089531832083DF91CF917D
S1130E001F910F91FF90EF9008957A01E21AF30A6F
S1130E100E94E9081E141F04D4F280E0DF91CF91F0
S1130E201F910F91FF90EF900895DF92EF92FF9240
S1130E300F931F93CF93DF93EC01D62E0E94E30808
S1130E408E0105581F4FF80140815181FE01E7587A
S1130E50FF4F208131814217530714F5421B530B76
S1130E607A01F9E7EF0EF11C0E94E90888E7E81619
S1130E70F10474F4F80180819181C80FD91FD882DC
S1130E800196918380838937910514F01182108231
S1130E90DF91CF911F910F91FF90EF90DF90089514
S1130EA07A01E21AF30AE0CF8F929F92AF92BF9237
S1130EB0CF92DF92EF92FF920F931F93CF93DF9322
S1130EC05C017B01EA01493751050CF451C0C8E7C4
S1130ED0D0E09BE7C92ED12CCA0CDB1C8501075836
S1130EE01F4F20C0421B530B4A01F9E78F0E911C80
S1130EF00E94E9081814190444F5F80180819181CD
S1130F00F501E80FF91F20810196F8019183808390
S1130F108937910514F011821082F70121937F0122
S1130F202197C9F00E94E308F60140815181F8013C
S1130F302081318142175307ACF24A01821A930A85
S1130F400E94E90818141904C4F220E0F70121935F
S1130F507F01219739F7DF91CF911F910F91FF9076
S1130F60EF90DF90CF90BF90AF909F908F900895B7
S1130F70209789F38BE7C82ED12CCA0CDB1C850182
S1130F8007581F4FCFCF7F928F929F92AF92BF92FD
S1130F90CF92DF92EF92FF920F931F93CF93DF9341
S1130FA05C01EA0149375105E4F1C8E7D0E07B016F
S1130FB0850105581F4F29E7C22ED12CCA0CDB1C12
S1130FC01EC0421B530B4A01F9E78F0E911C0E946D
S1130FD0E90888E78816910484F4F80180819181F6
S1130FE0F501E80FF91F70820196F801918380835F
S1130FF08937910514F0118210822197A1F0F7012D
S113100071907F010E94E308F80140815181F6014B
S11310102081318142175307A4F24A01821A930AAC
S1131020D6CF209721F6DF91CF911F910F91FF909A
S1131030EF90DF90CF90BF90AF909F908F907F9074
S113104008950F931F93CF93DF938C010E94E308BD
S1131050F801E558FF4FC081D181F801E758FF4FEF
S113106020813181C217D30764F4C21BD30BC75844
S1131070DF4F0E94E908CE01DF91CF911F910F91BC
S11310800895C21BD30B0E94E908CE01DF91CF91D2
S11310901F910F910895FC01E758FF4F11821082B0
S11310A0FC01E558FF4F1182108208951BBA8FE0AE
S11310B08ABB80E188BB88E187BB15BA8DE184BB1C
S11310C012BA82E881BB85E083BF12BE1CBE1FBC7E
S11310D081E08EBD1DBC1CBC17BC16BC83E08BBD5F
S11310E081E48ABD19BC18BC12BC15BC14BC13BC69
S11310F080E888B910BE0895823001F128F0833069
S113110019F1843099F00895882351F08130D9F78A
S11311108BB38B7FCA9B10C090E0892B8BBB089547
S11311208BB38D7FC999F8CF92E0F7CF8BB38F77CC
S1131130CF99F2CF90E8F1CF94E0EFCF8BB3877FD4
S1131140CB99EACF98E0E9CF8BB38F7ECC99E4CFEB
S113115090E1E3CF823079F030F0833071F0843065
S113116041F0D99A08958823E1F38130D1F7DA9ACE
S11311700895DF9A0895DB9A0895DC9A08958230E1
S113118079F030F0833071F0843041F0D9980895CB
S11311908823E1F38130D1F7DA980895DF98089530
S11311A0DB980895DC980895AB01BC018EE992E0C8
S11311B00C94C30781E08093E2017894089510921F
S11311C0E201F89408958091E2011092E201F8940A
S11311D00895811104C0F8941092E201089578945E
S11311E081E08093E20108951F93CF93DF9381E21E
S11311F092E00E942108892B09F484C08091E101C6
S1131200813009F47FC081E292E00E94C5062091FA
S11312105F0130916001F901EF59FE4F8083211580
S1131220310509F45AC02130310509F06FC08091AD
S11312306201833441F08FEF9FEF909360018093BC
S11312405F012FEF3FEF243031050CF455C080913E
S113125065018F3109F41DC108F060C08C3109F4B7
S113126087C008F0CCC0813109F4CEC08B3109F0BD
S11312705EC02D3031050CF43FC09EE79093790198
S113128080937A018091660180937B01809167014C
S113129080937C018091680180937D018091690134
S11312A080937E0180916A0180937F0180916B011C
S11312B08093800180916C018093810180916D0104
S11312C08093820180916E01809383018BE08093EF
S11312D08D0181E08093E1010DC080916101843230
S11312E009F0A9CF2330310509F0ADCF8091640115
S11312F0843411F02FEF3FEF2F5F3F4F30936001A5
S113130020935F01DF91CF911F9108952230310521
S113131049F7809163018D3469F7EECF823269F029
S113132008F08AC0803209F439C1813231F02831A1
S1131330310514F320E030E0E1CF27303105E4F249
S11313409EE79093790180937A018091660180935E
S11313507B018091670180937C0180916801809377
S11313607D0185E080938D0181E08093E101E2CFEE
S1131370223131050CF29EE79093790180937A0132
S11313808091660180937B018091670180937C0149
S11313908091680180937D018091690180937E0131
S11313A080916A0180937F0180916B018093800119
S11313B080916C018093810180916D018093820101
S11313C080916E018093830180916F0180938401E9
S11313D080917001809385018091710180938601D1
S11313E080917201809387018091730180938801B9
S11313F080E180938D0181E08093E1019BCF8D3169
S113140019F08E3109F093CF263031050CF474CFE6
S11314109EE79093790180937A018091660180938D
S11314207B018091670180937C0184E080938D012E
S113143081E08093E1017ECF853209F47ECF86324C
S113144009F47BCF833209F072CF293031050CF4D3
S113145053CF9EE79093790180937A01809166013E
S113146080937B018091670180937C018091680166
S113147080937D018091690180937E0180916A014E
S113148080937F0187E080938D0181E08093E10167
S113149051CF293031050CF42FCF80916601809310
S11314A0DF01C0916701C093DE01D0E0C81BD10900
S11314B010916801E09169011092990110929801CC
S11314C01092970110929601E33108F47BC0EA3838
S11314D008F49AC0E33E08F4A7C0F0E0E35EF10923
S11314E0DF0120E032EA4AE454E00E94B40F909312
S11314F095018093940120E032EAE29FC001E39FCA
S1131500900DF29F900D112490939301809392017A
S113151068E58FEA93E00E94FC0D6091940170915C
S113152095018FEA93E00E94050E609192017091FB
S113153093018FEA93E00E94050E8FEF9FEF909343
S1131540610080936000123509F451C020919A0122
S113155030919B01C901C20FD31FC217D30798F062
S11315604091DF01FC01EE0FFF1FE456FE4F50E0F7
S1131570421B530B9A01280F391F21933193019673
S1131580C817D907B8F72196D0939B01C0939A0145
S113159081E08093E1018093E001CCCE27303105D6
S11315A00CF4AACE8FEF8093DF018093DE018FEFDE
S11315B09FEF90936100809360001092E00110927D
S11315C0E101B8CE10929501109294018E2F90E013
S11315D0019648E853E1849F9001859F300D949FC4
S11315E0300D1124309393012093920191CFECE9B3
S11315F0F1E08193919321E0EC3DF207D1F720E0F3
S113160030E080E090E0ACCFAE2FB0E0529720E223
S11316103EE40E94AD0F90939501809394017093E2
S113162093016093920174CFF0E0E958F109DF016E
S113163020E83FE442E150E00E94B40F909395010A
S11316408093940120E83FE4E29FC001E39F900D62
S1131650F29F900D1124909393018093920158CF9F
S11316609EE79093790194E290937A0180937B01B1
S113167083E080938D0108958EE992E00E94210811
S1131680892B09F008956EE78EE992E00E94150710
S113169069E08EE992E00E9415074BE050E062E6B3
S11316A070E08EE992E00C94C307ECE9F1E08FEF6F
S11316B09FEF8193919321E0EC3DF207D1F70895D8
S11316C083EE91E00E94170E81E292E00E94C4062C
S11316D08EE992E00E94C4068BE193E00E942B0EF7
S11316E08AEA93E00C942F0D8AEA93E00E942B0D72
S11316F08BE193E00E94180E8EE992E00E94B906F5
S113170081E292E00E94B90683EE91E00C94110EFE
S11317100C94600BCF93DF9300D0CDB7DEB70E945B
S113172056080E94DF080E94550B60E08BE193E0AD
S11317300E94370E80E00E94AA082FE768E381E048
S1131740215060408040E1F700C0000080E00E942A
S1131750BF089FE7A8E321E09150A0402040E1F7B3
S113176000C0000081E00E94AA086FE788E391E0CE
S1131770615080409040E1F700C0000081E00E9489
S1131780BF08AFE728E361E0A15020406040E1F7E3
S113179000C0000082E00E94AA088FE798E3A1E05D
S11317A081509040A040E1F700C0000082E00E9418
S11317B0BF082FE768E381E0215060408040E1F7F3
S11317C000C000009FEFA0E722E09150A04020401D
S11317D0E1F700C0000082993AC16FEF80E792E020
S11317E0615080409040E1F700C0000080E00E941A
S11317F0AA080E94DA088FEF8093DF018093DE014C
S11318001092E001D12CEE24EA94FE2C0E94F408FC
S11318108EE992E00E9421081816190634F48FEA22
S113182093E00E94000E811148C08091E101811172
S113183014C08BE193E00E94B20E811117C082E0C4
S11318400E94AA088BE193E00E94010F892BF1F614
S11318508BE193E00E94B50ED9CF80E00E947C0812
S11318608BE193E00E94B20E882349F38BE193E06D
S11318700E940B0F811150C08BE193E00E94010F75
S11318808234910520F52091DC013091DD01253C65
S1131890394018F4DD2009F4B9CF8091E1018111B8
S11318A084C08091E0018111A3C01092DD011092E7
S11318B0DC010E943C0BD12CA9CF8EE992E00E945E
S11318C0C506682F8FEA93E00E94FC0DAECF65EF4A
S11318D073E08BE193E00E94040F82E00E94BF0852
S11318E0AE014F5F5F4F65EF73E08AEA93E00E94B9
S11318F09C0D882309F48ACF81E00E947C08109310
S11319001C0400931B0469817A8185EF93E00E9493
S1131910D408DD24D3947ACF61E08BE193E00E9474
S11319203A0E8C01A9CF81E00E947C08E09160000E
S1131930F0916100CF0101969C0140919A01509170
S11319409B0148175907D0F0DC01AA0FBB1FA4560E
S1131950BE4F6D917C916F3F7F4F09F065C0EE0FD4
S1131960FF1FE056FE4F05C081919191019609F049
S11319705CC02F5F3F4F42175307B0F7F0926100EE
S1131980E092600080919401909195019093990167
S11319908093980180919201909193019093970183
S11319A08093960181E08093E1011092DD01109211
S11319B0DC010E94E308D82E8BE193E00E94B50E6F
S11319C040918D0122EB33E050E069E771E08AEA4F
S11319D093E00E94300D62EB73E08BE193E00E9490
S11319E0E80E1092E1018D2D0E94E908D12C0ECF52
S11319F00E943C0B8091960190919701892B39F4B8
S1131A008091980190919901892B09F48CCF82E0FF
S1131A100E947C088091E1011092DD011092DC01AA
S1131A20882309F446CFC5CF9C012F3F8FEF380799
S1131A3009F4A4CF3093610020936000F901EE0F04
S1131A40FF1FE456FE4F80810E94300BABCF80E035
S1131A500E94AA08C2CE21E1FC01248308950895BE
S1131A60CF92DF92FF920F931F93CF93DF93DC010A
S1131A7013961C921E9212974E33510588F4411509
S1131A80510509F050C0F90182E411928150E9F73F
S1131A90DF91CF911F910F91FF90DF90CF90089528
S1131AA0EC014C81F901408311824DE3428310E43F
S1131AB04DE350E000E0A0E0B0E06B01CA0EDB1E95
S1131AC0F601F080FC01C281D381CF0DD11DD383F7
S1131AD0C283E601E881A20FB31F1396EC930F5F54
S1131AE0A02FB0E0A417B50744F305C0F901E10F36
S1131AF0F11D10821F5F1034C9F7F901E05CFF4F3C
S1131B00DC0113964C9113974083F901EF5BFF4F6F
S1131B1012968C918083DF91CF911F910F91FF904A
S1131B20DF90CF9008951496EC91E901E88319822F
S1131B304A83142F1D5FBECFCF93DF93DB012C911B
S1131B40FC018481281341C011963C91119720E037
S1131B5012968C911297282B2E333105B0F5FA0189
S1131B60318320836D5F7F4F40E050E021153105C4
S1131B70E9F0E0E080E090E0EB01C80FD91F888134
S1131B80480F511DEF5F8E2F90E082179307A4F347
S1131B9060E080E090E0FD01E80FF91F838180831D
S1131BA06F5F862F90E082179307ACF3FD01E05C32
S1131BB0FF4F908180E0AF5BBF4F2C91BC01622B43
S1131BC09B0181E02417350709F080E0DF91CF9174
S1131BD008951BB888E18AB986E880BD10BC6038D6
S1131BE085E2780719F061157B4419F083E389B91C
S1131BF0089589E189B908955D9BFECF6CB9089574
S1131C008BB185FB882780F908955D9BFECF7CB955
S1131C105D9BFECF6CB908958BB1881F8827881F00
S1131C200895FC0195AF84AF2FEF228308950895A2
S1131C30CF93DF93EC0105960E945600CE014296A5
S1131C400E94B90682E18A8384E38B8386E58C83D0
S1131C50DF91CF910895CF93DF93EC0142960E94D8
S1131C60C406CE010596DF91CF910C9461000596D0
S1131C700C94630505960C9445030F931F93CF931F
S1131C80DF938C012091DC013091DD012F5F3F4F08
S1131C903093DD012093DC018091960190919701AE
S1131CA0009789F001979093970180939601E8013A
S1131CB02596CE010E94ED058823F9F0DF91CF919E
S1131CC01F910F9108958091980190919901009727
S1131CD071F32091920130919301309397012093F5
S1131CE0960101979093990180939801E8012596B4
S1131CF0CE010E94ED058111E1CFCE010E94B6050F
S1131D00CE010E94E3058823C9F2F8018081918104
S1131D1088329105BCF485329105D9F0863291055B
S1131D20D9F08797E1F06AEACE010E94DF05F80155
S1131D3080819181019691838083DF91CF911F915E
S1131D400F910895C80142960E94C5066AEA682761
S1131D50EBCFF8016281E8CFF8016381E5CFF801A8
S1131D606481E2CF05960C94ED05FF920F931F93C7
S1131D70CF93DF93EC010E94E308F82E8E010B5FF2
S1131D801F4FC8010E94ED05811117C060E0C80112
S1131D900E94F6058EE992E00E944B08CE0142961D
S1131DA00E944B089AB79F719ABF8F2DDF91CF91F4
S1131DB01F910F91FF900C94E90861E0C8010E9403
S1131DC0F605CE0142960E944B0819821882EACF8A
S1131DD0CF93DF93EC01629642E450E0CE010E947F
S1131DE0C30760E0CE010E94150760E0CE010E94A7
S1131DF0150760E0CE010E94150781E0DF91CF91C5
S1131E00089542960C94210842E450E042960E94C0
S1131E10540781E0089505960C94B6061F920F921C
S1131E200FB60F9211242F933F934F935F936F93A9
S1131E307F938F939F93AF93BF93EF93FF9380E22E
S1131E4093E00E94920580E293E00E94EA058111EA
S1131E5011C0FF91EF91BF91AF919F918F917F91AD
S1131E606F915F914F913F912F910F900FBE0F9003
S1131E701F90189580E293E00E94E6056AEA6827BD
S1131E808DE293E00E94150780912C038F5F80936D
S1131E902C038234F0F280E293E00E94F305109266
S1131EA02C03D7CF1F920F920FB60F9211242F93AA
S1131EB03F934F935F936F937F938F939F93AF93CE
S1131EC0BF93EF93FF9380E293E00E94AF05FF91ED
S1131ED0EF91BF91AF919F918F917F916F915F919E
S1131EE04F913F912F910F900FBE0F901F90189517
S1131EF01F920F920FB60F9211242F933F934F937B
S1131F005F936F937F938F939F93AF93BF93EF935D
S1131F10FF931DBC8CE28CBD12BE8BE193E00E944A
S1131F203D0E8FEA93E00E940C0E882329F06CB1D9
S1131F3081E292E00E941507FF91EF91BF91AF916A
S1131F409F918F917F916F915F914F913F912F91CD
S1131F500F900FBE0F901F9018950E94C20FB7FFED
S1131F600895821B930B0895B7FF0C94CE0F0E9423
S1131F70CE0F821B930B0895EE0FFF1F0590F49173
S1131F80E02D0994A29FB001B39FC001A39F01D08B
S1131F90B29F700D811D1124911D08950E94C20FDE
S1131FA0A59F900DB49F900DA49F800D911D1124A9
S1131FB0089510E0C6E5D0E004C0FE010E94BE0F03
S10F1FC02296C835D107C9F7F894FFCF6A
S1111FCCFFFF4920414D20414C49564500007D
S9030000FC
